:020000040800F2
:1000000000500020AD47000845410008514100085C
:1000100075410008814100088D4100080000000082
:1000200000000000000000000000000099410008EE
:10003000FD47000800000000FD470008153D0008CE
:10004000213D00082D3D0008393D0008453D0008D0
:10005000513D00085D3D0008693D0008753D000800
:10006000813D00088D3D0008993D0008A53D000830
:10007000B13D0008BD3D000831450008C93D0008FC
:10008000D53D0008E13D0008ED3D0008F93D0008C0
:10009000053E0008113E00081D3E0008293E0008EC
:1000A000353E0008413E00085D3E0008693E0008FC
:1000B000753E0008913E00089D3E0008A93E0008DC
:1000C000B53E0008C93E0008D53E0008E13E0008E4
:1000D000DD3C00089D430008ED3E0008F93E0008A5
:1000E000053F0008113F0008000000001D3F000808
:1000F000293F0008353F0008413F00084D3F0008F8
:10010000593F0008653F0008713F00087D3F000827
:10011000893F0008953F0008A13F0008AD3F000857
:10012000B93F0008C53F0008D13F0008DD3F000887
:1001300010B5054C237833B9044B13B10448AFF321
:1001400000800123237010BD080000200000000083
:100150005C54000808B5034B1BB103490348AFF3D7
:10016000008008BD000000000C0000205C54000866
:100170004FF0FF0C1CEAD0521EBF1CEAD15392EA8A
:100180000C0F93EA0C0F6FD01A4480EA010C400266
:1001900018BF5FEA41211ED04FF0006343EA5010C0
:1001A00043EA5111A0FB01310CF00040B1F5000F02
:1001B0003EBF490041EAD3715B0040EA010062F1B1
:1001C0007F02FD2A1DD8B3F1004F40EBC25008BF9B
:1001D00020F00100704790F0000F0CF0004C08BFB9
:1001E00049024CEA502040EA51207F3AC2BFD2F186
:1001F000FF0340EAC250704740F400004FF0000394
:10020000013A5DDC12F1190FDCBF00F000407047CD
:10021000C2F10002410021FA02F1C2F1200200FA0B
:1002200002FC5FEA310040F1000053EA4C0308BFD2
:1002300020EADC70704792F0000F00F0004C02BF23
:10024000400010F4000F013AF9D040EA0C0093F09E
:10025000000F01F0004C02BF490011F4000F013BF8
:10026000F9D041EA0C018FE70CEAD15392EA0C0F66
:1002700018BF93EA0C0F0AD030F0004C18BF31F0D1
:10028000004CD8D180EA010000F00040704790F0A7
:10029000000F17BF90F0004F084691F0000F91F04B
:1002A000004F14D092EA0C0F01D142020FD193EA11
:1002B0000C0F03D14B0218BF084608D180EA010099
:1002C00000F0004040F0FE4040F40000704740F075
:1002D000FE4040F44000704781F0004102E000BF62
:1002E00083F0004330B54FEA41044FEA430594EAF6
:1002F000050F08BF90EA020F1FBF54EA000C55EA31
:10030000020C7FEA645C7FEA655C00F0E2804FEA01
:100310005454D4EB5555B8BF6D420CDD2C4480EAE3
:10032000020281EA030382EA000083EA010180EA13
:10033000020281EA0303362D88BF30BD11F0004F61
:100340004FEA01314FF4801C4CEA113102D0404297
:1003500061EB410113F0004F4FEA03334CEA1333D2
:1003600002D0524263EB430394EA050F00F0A780EA
:10037000A4F10104D5F1200E0DDB02FA0EFC22FAE5
:1003800005F2801841F1000103FA0EF2801843FAD9
:1003900005F359410EE0A5F120050EF1200E012ACA
:1003A00003FA0EFC28BF4CF0020C43FA05F3C01808
:1003B00051EBE37101F0004507D54FF0000EDCF181
:1003C000000C7EEB00006EEB0101B1F5801F1BD32A
:1003D000B1F5001F0CD349085FEA30004FEA3C0C2E
:1003E00004F101044FEA445212F5800F80F09A8024
:1003F000BCF1004F08BF5FEA500C50F1000041EB28
:10040000045141EA050130BD5FEA4C0C404141EB2B
:100410000101013C28BFB1F5801FE9D291F0000F26
:1004200004BF01460020B1FA81F308BF2033A3F1D5
:100430000B03B3F120020CDA0C3208DD02F1140CCC
:10044000C2F10C0201FA0CF021FA02F10CE002F107
:100450001402D8BFC2F1200C01FA02F120FA0CFC00
:10046000DCBF41EA0C019040E41AA2BF01EB045149
:10047000294330BD6FEA04041F3C1CDA0C340EDC47
:1004800004F11404C4F1200220FA04F001FA02F38A
:1004900040EA030021FA04F345EA030130BDC4F148
:1004A0000C04C4F1200220FA02F001FA04F340EA3D
:1004B0000300294630BD21FA04F0294630BD94F0EE
:1004C000000F83F4801306BF81F480110134013DD5
:1004D0004EE77FEA645C18BF7FEA655C29D094EA46
:1004E000050F08BF90EA020F05D054EA000C04BFC4
:1004F0001946104630BD91EA030F1EBF00210020AF
:1005000030BD5FEA545C05D14000494128BF41F04D
:10051000004130BD14F580043CBF01F5801130BDB1
:1005200001F0004545F0FE4141F470014FF000003C
:1005300030BD7FEA645C1ABF194610467FEA655CED
:100540001CBF0B46024650EA013406BF52EA03358F
:1005500091EA030F41F4002130BD00BF90F0000F7D
:1005600004BF0021704730B54FF4806404F13204B9
:100570004FF000054FF0000150E700BF90F0000F72
:1005800004BF0021704730B54FF4806404F1320499
:1005900010F0004548BF40424FF000013EE700BF69
:1005A00042004FEAE2014FEA31014FEA02701FBFF9
:1005B00012F07F4393F07F4F81F06051704732F02B
:1005C0007F4208BF704793F07F4F04BF41F4002182
:1005D000704730B54FF4607401F0004521F00041E0
:1005E0001CE700BF50EA010208BF704730B54FF06A
:1005F00000050AE050EA010208BF704730B511F06B
:10060000004502D5404261EB41014FF4806404F1A2
:1006100032045FEA915C3FF4D8AE4FF003025FEA28
:10062000DC0C18BF03325FEADC0C18BF033202EBAC
:10063000DC02C2F1200300FA03FC20FA02F001FA06
:1006400003FE40EA0E0021FA02F11444BDE600BFA9
:100650004FF0FF3C06E000BF4FF0010C02E000BF8E
:100660004FF0010C4DF804CD4FEA410C7FEA6C5C71
:100670004FEA430C18BF7FEA6C5C1BD001B050EA14
:10068000410C0CBF52EA430C91EA030F02BF90EAFF
:10069000020F0020704710F1000F91EA030F58BFBE
:1006A000994208BF90422CBFD8176FEAE37040F020
:1006B000010070474FEA410C7FEA6C5C02D150EABE
:1006C000013C07D14FEA430C7FEA6C5CD6D152EA79
:1006D000033CD3D05DF8040B704700BF844610463E
:1006E00062468C461946634600E000BF01B5FFF73D
:1006F000B7FF002848BF10F1000F01BD4DF808ED0D
:10070000FFF7F4FF0CBF012000205DF808FB00BFDD
:100710004DF808EDFFF7EAFF34BF012000205DF837
:1007200008FB00BF4DF808EDFFF7E0FF94BF012084
:1007300000205DF808FB00BF4DF808EDFFF7CEFF85
:1007400094BF012000205DF808FB00BF4DF808EDC4
:10075000FFF7C4FF34BF012000205DF808FB00BF95
:100760004FEA4102B2F1E04324BFB3F5001CDCF1D3
:10077000FE5C0DD901F0004C4FEAC0024CEA50700B
:10078000B2F1004F40EB830008BF20F0010070473A
:1007900011F0804F21D113F13872BCBF01F000403D
:1007A000704741F480114FEA5252C2F11802C2F16F
:1007B000200C10FA0CF320FA02F018BF40F00100F0
:1007C0004FEAC1234FEAD32303FA0CFC40EA0C00A2
:1007D00023FA02F34FEA4303CCE77FEA625307D1DF
:1007E00050EA01331EBF4FF0FE4040F44000704716
:1007F00001F0004040F0FE4040F40000704700BFB0
:1008000080F0004002E000BF81F0004142001FBFC5
:100810005FEA410392EA030F7FEA226C7FEA236CCE
:100820006AD04FEA1262D2EB1363C1BFD2184140C3
:1008300048404140B8BF5B42192B88BF704710F059
:10084000004F40F4000020F07F4018BF404211F0FC
:10085000004F41F4000121F07F4118BF494292EA64
:10086000030F3FD0A2F1010241FA03FC10EB0C0090
:10087000C3F1200301FA03F100F0004302D549421D
:1008800060EB4000B0F5000F13D3B0F1807F06D3CA
:1008900040084FEA310102F10102FE2A51D2B1F1C2
:1008A000004F40EBC25008BF20F0010040EA0300B7
:1008B0007047490040EB0000013A28BFB0F5000F37
:1008C000EDD2B0FA80FCACF1080CB2EB0C0200FAED
:1008D0000CF0AABF00EBC25052421843BCBFD0403C
:1008E0001843704792F0000F81F4000106BF80F4B6
:1008F00000000132013BB5E74FEA41037FEA226C79
:1009000018BF7FEA236C21D092EA030F04D092F043
:10091000000F08BF0846704790EA010F1CBF002077
:10092000704712F07F4F04D1400028BF40F00040D4
:10093000704712F100723CBF00F50000704700F0F4
:10094000004343F0FE4040F4000070477FEA22621B
:1009500016BF08467FEA23630146420206BF5FEAEC
:10096000412390EA010F40F4800070474FF00003EC
:1009700004E000BF10F0004348BF40425FEA000CB3
:1009800008BF704743F0964301464FF000001CE05B
:1009900050EA010208BF70474FF000030AE000BFB1
:1009A00050EA010208BF704711F0004302D54042EF
:1009B00061EB41015FEA010C02BF84460146002061
:1009C00043F0B64308BFA3F18053A3F50003BCFA7C
:1009D0008CF2083AA3EBC25310DB01FA02FC634429
:1009E00000FA02FCC2F12002BCF1004F20FA02F230
:1009F00043EB020008BF20F00100704702F1200223
:100A000001FA02FCC2F1200250EA4C0021FA02F283
:100A100043EB020008BF20EADC7070474FF0FF3C58
:100A200006E000BF4FF0010C02E000BF4FF0010CE8
:100A30004DF804CD4FEA40024FEA41037FEA226CB1
:100A400018BF7FEA236C11D001B052EA530C18BFD3
:100A500090EA010F58BFB2EB030088BFC81738BF38
:100A60006FEAE17018BF40F0010070477FEA226C26
:100A700002D15FEA402C05D17FEA236CE4D15FEA22
:100A8000412CE1D05DF8040B704700BF8446084656
:100A90006146FFE70FB5FFF7C9FF002848BF10F117
:100AA000000F0FBD4DF808EDFFF7F4FF0CBF01205C
:100AB00000205DF808FB00BF4DF808EDFFF7EAFFE6
:100AC00034BF012000205DF808FB00BF4DF808EDA1
:100AD000FFF7E0FF94BF012000205DF808FB00BF96
:100AE0004DF808EDFFF7D2FF94BF012000205DF81C
:100AF00008FB00BF4DF808EDFFF7C8FF34BF012029
:100B000000205DF808FB00BF4FEA4002B2F1FE4F43
:100B10000FD34FF09E03B3EB12620DD94FEA0023BF
:100B200043F0004310F0004F23FA02F018BF404298
:100B300070474FF00000704712F1610F01D142027F
:100B400005D110F0004008BF6FF0004070474FF033
:100B50000000704780B500AF0D21044802F0F6F99F
:100B60000021034802F0F2F900BF80BD00100140EF
:100B7000000C014080B582B000AF794B7B607B6890
:100B80001B7801331946786800F0A2FB0346FB701E
:100B90007B681B78013B7A6813449B78BB70FA78BA
:100BA000BB789A4240F0D4806E4B00225A616E4B63
:100BB00001221A607B685B780C3B362B00F2CA80FE
:100BC00001A252F823F000BFB10C0008BD0C0008D0
:100BD000550D0008550D0008C90C0008A50C0008AB
:100BE000550D0008550D0008210D0008550D000891
:100BF000550D0008550D0008550D0008550D00084D
:100C0000550D0008550D0008550D0008550D00083C
:100C1000550D0008550D0008550D0008550D00082C
:100C2000550D0008550D0008550D0008550D00081C
:100C3000550D0008550D0008550D0008550D00080C
:100C4000550D0008550D0008550D0008550D0008FC
:100C5000550D0008550D0008550D0008550D0008EC
:100C6000550D0008550D0008550D0008550D0008DC
:100C7000550D0008550D0008550D0008550D0008CC
:100C8000550D0008550D0008550D0008550D0008BC
:100C9000550D0008550D00082D0D0008390D0008F0
:100CA000450D00087B6802331B68304AD36054E06E
:100CB0007B6804331B682D4A13604EE07B68043365
:100CC0001B682A4A536048E07B685B79012B11D18D
:100CD0007B689B781B061A46244B9A61234B9B69C1
:100CE0007A68D2781202796809790A4313431F4A55
:100CF000936131E07B685B79022B2DD17B689B7817
:100D00001B061A46194BDA61184BDB697A68D278F0
:100D10001202796809790A431343144AD3611BE02C
:100D20007B680233124A1B68136016E07B6802334B
:100D30001B680E4A936010E07B6802331B680B4A05
:100D400013610AE07B6802331B68084A536104E0C0
:100D500000BF02E000BF00E000BF0837BD4680BD15
:100D60008C0000202400002004010020DC00002072
:100D7000FC00002080B400AF00BFBD4680BC7047BF
:100D800080B400AF044BDB68034A83F40053D360A4
:100D900000BFBD4680BC70470010014080B500AF69
:100DA0000A4B0B4A1A60094B00229A60074B0C222F
:100DB0009A61064B074AC3F8B020044B064AC3F8B1
:100DC000B420024802F090FD00BF80BD2400002046
:100DD00000540040750B0008750D000890B585B0F3
:100DE00000AF994BBB60994B1B680D3B352B00F254
:100DF000DB8001A252F823F0EB0E0008A90F0008D7
:100E0000A90F0008050F0008D10E0008A90F00085F
:100E1000A90F00088F0F0008A90F0008A90F0008EC
:100E2000A90F0008A90F0008A90F0008A90F0008C2
:100E3000A90F0008A90F0008A90F0008A90F0008B2
:100E4000A90F0008A90F0008A90F0008A90F0008A2
:100E5000A90F0008A90F0008A90F0008A90F000892
:100E6000A90F0008A90F0008A90F0008A90F000882
:100E7000A90F0008A90F0008A90F0008A90F000872
:100E8000A90F0008A90F0008A90F0008A90F000862
:100E9000A90F0008A90F0008A90F0008A90F000852
:100EA000A90F0008A90F0008A90F0008A90F000842
:100EB000A90F0008A90F0008A90F0008A90F000832
:100EC000A90F0008410F00085B0F0008750F00080C
:100ED000BB6811221A70BB6801225A705C4B072252
:100EE0001A605A4B0D221A6062E0BB680D221A701C
:100EF000BB6801225A70564B11221A60534B1022C4
:100F00001A6055E0BB6810221A70BB6802225A7042
:100F1000504B1B68002B03D0BB6801229A7002E083
:100F2000BB6802229A704B4B1B6883F00103494A4D
:100F30001360474B07221A60444B40221A6037E087
:100F4000BB6840221A70BB6801225A70404B0722CE
:100F50001A603E4B41221A602AE0BB6841221A7097
:100F6000BB6801225A703A4B07221A60374B422263
:100F70001A601DE0BB6842221A70BB6801225A70D9
:100F8000334B07221A60314B14221A6010E0BB6801
:100F900014221A70BB6801225A702D4B07221A6066
:100FA0002A4B11221A6003E0284B11221A6047E0F5
:100FB000BB685B7801331A46BB685B785C1E1146E0
:100FC000B86800F085F903461A46BB6823449A7056
:100FD0000C21214802F0E2F803467B607B68032B7A
:100FE0002DD07B68022B03D11C4802F07DFC27E04A
:100FF000BB685B7802331A46B968174802F002FAF8
:10100000134B1B68154AC2F8A830144802F082FC42
:101010000346022B14D10023FB6007E0FB68104A53
:10102000134400221A70FB680133FB60084B1B68F5
:10103000FA689A42F2D3094802F056FC00E000BF79
:101040001437BD4690BD00BF4400002000000020C2
:10105000000100200801002000540040240000206E
:101060008C00002080B500AF034B1B68184602F0CF
:1010700071FA0346184680BD2400002080B400AFFA
:10108000024B1846BD4680BC704700BFDC00002004
:1010900080B500AF134B5B690133124A5361114BAA
:1010A0005B69B3F57A7F06D30E4B00225A61FFF7D6
:1010B00067FEFFF773FE0C4B1B68002B10D00B4B29
:1010C0001B680133094A1360084B1B68312B07D991
:1010D000064B00221A60044B00221A60FFF750FEF4
:1010E00000BF80BD24000020040100200C0100206E
:1010F00080B400AF3E4B1B6801333D4A13603D4B4B
:101100001B8801339AB23B4B1A803A4B1B883A4AF0
:10111000A2FB03121209322101FB02F29B1A9BB2BD
:10112000002B07D1354B1B889BB283F001039AB289
:10113000324B1A802F4B1B882F4AA2FB03125209F5
:10114000642101FB02F29B1A9BB2002B07D12B4BAF
:101150001B889BB283F002039AB2284B1A80254B5E
:101160001B88274AA2FB03121209FA2101FB02F293
:101170009B1A9BB2002B07D1204B1B889BB283F09C
:1011800004039AB21D4B1A801A4B1B881C4AA2FBFF
:10119000031252094FF4FA7101FB02F29B1A9BB23F
:1011A000002B07D1154B1B889BB283F008039AB222
:1011B000124B1A800F4B1B88114AA2FB0312920993
:1011C0004FF47A7101FB02F29B1A9BB2002B0AD1F9
:1011D0000A4B1B889BB283F010039AB2074B1A800C
:1011E000044B00221A8000BFBD4680BC704700BF80
:1011F00014010020180100201F85EB511001002070
:10120000D34D621080B584B000AF786039600023A0
:10121000FB6001F0D3FD0E4801F0E2FD0DE00D4A48
:10122000FB6852F823307968184601F013FEFB681A
:101230000133FB607B6804337B60FA683B689A4249
:10124000EDD301F0ADFD00BF1037BD4680BD00BF3E
:1012500000FC01081C01002080B500AF094B1B6891
:10126000002B0DD0074B00221A60074BD3F8263015
:101270000133054AC2F826300D210448FFF7C2FFAA
:1012800000BF80BD4C0100201C01002000FC0108B3
:1012900080B485B000AF78603960FF23FB730AE04B
:1012A0007B685A1C7A601A78FB7B5340DBB21A4683
:1012B000064B9B5CFB733B685A1E3A60002BEFD1D8
:1012C000FB7B18461437BD4680BC70478C55000820
:1012D00080B582B000AF7860396039687868FFF710
:1012E000D7FF034618460837BD4680BD80B483B09B
:1012F00000AF78607B681B6918460C37BD4680BC20
:101300007047000080B586B002AF03460A46FB7105
:101310001346BB710023BB81BB7907F10C01FA793D
:1013200000930B4668210C4802F055F90346002B48
:1013300005D00021084800F027F8002307E03B7B98
:101340001B021AB27B7B1BB213431BB29BB2184623
:101350001037BD4680BD00BF0054004080B584B04A
:1013600002AF03463960FB711346BB71BB79FA7952
:1013700000933B686821034802F004F900BF083776
:10138000BD4680BD0054004080B584B000AF786099
:1013900039600023BB8107F10C030222194610209B
:1013A000FFF7DCFF00BF1037BD4680BD80B584B0BD
:1013B00000AF786002210A20FFF7A4FF03465B0913
:1013C000FB81FA8913465B019B1A9B001344BB60A7
:1013D000BB683233044AA2FB03235A097B689A6034
:1013E00000BF1037BD4680BD1F85EB5180B584B06E
:1013F00000AF786002210C20FFF784FF03465B09F1
:101400009BB2FB60FB684FF4F47202FB03F3FB60DA
:10141000FB6841F2635202FB03F3FB60FB6803F5D8
:10142000F42303F59073054AA2FB03239A0C7B680F
:10143000DA6000BF1037BD4680BD00BF83DE1B43AE
:1014400080B400AF044B1B680133034A136000BF34
:10145000BD4680BC704700BF5001002080B400AF83
:10146000094BDB68084A43F08073D360074B0022C6
:101470005A60064B1B68054A43F00103136000BF26
:10148000BD4680BC704700BFF0ED00E0001000E0FA
:1014900080B485B000AF78607B680C4A93420FD867
:1014A0007A681346DB001344DB00FB60084B002224
:1014B0005A6000BF064B5B68FA689A42FAD800E0AF
:1014C00000BF1437BD4680BC704700BF8002750363
:1014D000001000E080B582B000AF78607B684FF408
:1014E0007A7202FB03F31846FFF7D2FF00BF0837FA
:1014F000BD4680BD80B485B000AF78603960012200
:101500003B6802FA03F3FB607B683A4A934206D1D8
:10151000394B9B69384A43F00403936114E07B68BC
:10152000364A934206D1344B9B69334A43F0080351
:10153000936109E07B68324A934255D12E4B9B69F7
:101540002D4A43F0100393613B68072B22D83B6878
:101550009B003B607B681B6803213A6801FA02F23A
:10156000D2431A407B681A607B681B683A68023273
:10157000032101FA02F2D2431A407B681A607B68A9
:101580001B683A680232022101FA02F21A437B68B0
:101590001A6022E03B68083B9B003B607B685B680D
:1015A00003213A6801FA02F2D2431A407B685A607A
:1015B0007B685B683A680232032101FA02F2D24387
:1015C0001A407B685A607B685B683A680232022185
:1015D00001FA02F21A437B685A607B68DA68FB689A
:1015E0001A437B68DA6000E000BF1437BD4680BC58
:1015F000704700BF0008014000100240000C01408D
:101600000010014080B582B000AF78607B681A6836
:101610007B685B6819461046FFF76CFF7B689A6829
:101620007B68DB6819461046FFF764FF7B681A6920
:101630007B685B6919461046FFF75CFF7B680022F8
:101640001A777B6800225A7700BF0837BD4680BDF5
:1016500080B487B000AF78607B685B68012202FAD3
:1016600003F33B617B68DB68012202FA03F3FB6052
:101670007B685B69012202FA03F3BB600023FB7500
:101680007B681B689A683B691340002B03D0FB7D85
:1016900043F00103FB757B689B689A68FB68134005
:1016A000002B03D0FB7D43F00203FB75FA7D254B35
:1016B0001B7803F003039A4218D0224B1B789B003F
:1016C0005AB297F9173013435BB2DAB21D4B1A7056
:1016D0001C4B1B78E12B02D17B6802221A77194B35
:1016E0001B78D22B02D17B6803221A770023FB756B
:1016F0007B681B699A68BB681340002B03D0FB7D95
:1017000043F00103FB75104B1B785B005AB297F94D
:10171000173013435BB2DAB20B4B1A700A4B1B78CB
:10172000002B02D17B6801225A77074B1B78FF2BD5
:1017300002D17B6800225A7700BF1C37BD4680BCAF
:10174000704700BF540100205501002080B485B0CF
:1017500000AFF860B9607A603B60FB681B7F022BCA
:1017600002D0032B13D025E0BB681B68BA699A42EC
:1017700006D9BB681A687B681A44BB681A6002E025
:10178000BB683A681A60FB6800221A7712E0BB68EF
:101790001B683A689A4206D2BB681A687B68D21AFC
:1017A000BB681A6002E0BB68BA691A60FB68002275
:1017B0001A7700BF00BF1437BD4680BC704780B4A5
:1017C00083B000AF78607B685B7F18460C37BD46FE
:1017D00080BC704780B483B000AF786039607B68AC
:1017E0003A68DA603B681E4AA2FB03239B093B6010
:1017F0003B681C4AA2FB0323D90A1B4BA3FB012312
:101800001A0913465B001344DB00CA1AD3B21A4606
:101810007B681A603B68154AA2FB03235909134BE6
:10182000A3FB01235A0913461B019B1A9B00CA1AEA
:10183000D3B21A467B685A6039680C4BA3FB01236C
:101840005A0913461B019B1A9B00CA1AD3B21A46A7
:101850007B689A6000BF0C37BD4680BC704700BFF4
:10186000D34D6210C5B3A291ABAAAAAA8988888871
:1018700080B400AF154B1B68144A43F0010313609A
:10188000124B5A681149124B13404B600F4B1B68A7
:101890000E4A23F0847323F4803313600B4B1B68D0
:1018A0000A4A23F480231360084B5B68074A23F439
:1018B000FE035360054B4FF41F029A60054B4FF037
:1018C00000629A6000BFBD4680BC704700100240B5
:1018D0000000FFF800ED00E080B483B000AF0346E5
:1018E000FB8002E0FB88013BFB80FB88002BF9D1E9
:1018F00000BF00BF0C37BD4680BC704780B400AF4E
:10190000104B9B690F4A43F00C0393610E4B5B68CD
:101910000D4A23F44C2323F4406353600A4B5B6865
:10192000094A43F44C3343F440735360064B4FF47D
:1019300080521A61044B4FF400621A6100BFBD4629
:1019400080BC704700100240000C014080B582B09E
:1019500000AF03460A46FB711346BB710E4B4FF0B6
:1019600000621A61BB79002B04D00B4B4FF48062EC
:101970001A6103E0084B4FF080621A61FB79194647
:10198000064802F077F9044B4FF400621A6100BF79
:101990000837BD4680BD00BF000C01400038004044
:1019A00080B500AF264802F0DDF8FFF7A7FF254B12
:1019B0004FF080521A613220FFF78EFF214B4FF417
:1019C00080521A613220FFF787FF0021AF20FFF716
:1019D000BDFF00214020FFF7B9FF0021A020FFF745
:1019E000B5FF0021A620FFF7B1FF0021A420FFF7DB
:1019F000ADFF0021A220FFF7A9FF0021C820FFF7BB
:101A0000A5FF00212F20FFF7A1FF00212520FFF7D0
:101A10009DFF0021F820FFF799FF00210020FFF72C
:101A200095FF00218120FFF791FF00212220FFF781
:101A30008DFF0021AF20FFF789FF00BF80BD00BFF1
:101A400000380040000C014080B584B000AF7860E1
:101A5000214B1B68002B03D100214020FFF776FFAC
:101A60001D4B1B68DBB263F04F03DBB2002118464D
:101A7000FFF76CFF00211020FFF768FF0021042012
:101A8000FFF764FF0023FB6010E0144B1B687A68CB
:101A900013441B7801211846FFF758FF0F4B1B68B2
:101AA00001330E4A1360FB680133FB60FB687F2B38
:101AB000EBD9094B1B680133074A1360064B1B68BF
:101AC000072B05D9044B00221A60044B00221A6030
:101AD00000BF1037BD4680BD580100205C010020CA
:101AE00080B483B000AF0023FB7106E0FB79074AA6
:101AF0000021D154FB790133FB71FB79152BF5D90A
:101B000000BF00BF0C37BD4680BC7047600100209D
:101B100080B500AFFFF744FF00BF80BD80B500AFC8
:101B20000248FFF791FF00BF80BD00BF7801002091
:101B300080B483B000AF0023FB8006E0FB88084A36
:101B40000021D154FB880133FB80FB88B3F5806F03
:101B5000F4D300BF00BF0C37BD4680BC704700BF48
:101B60007801002080B485B000AF0346FB710B46BE
:101B7000BB7113467B71FB79802B4BD8BB79402B13
:101B800048D8BB79DB08DBB29BB2DB019AB2FB79A8
:101B90009BB21344BB81BB799AB2BB79DB08DBB241
:101BA0009BB2DB009BB2D31A7B81BB891C4AD35CFE
:101BB000FB817B79002B0CD17B89012202FA03F394
:101BC0001BB2DB431AB2B7F90E3013401BB2FB81D4
:101BD0001AE07B79012B0AD17B89012202FA03F3F7
:101BE0001AB2B7F90E3013431BB2FB810CE07B79BC
:101BF000022B09D17B89012202FA03F31AB2B7F949
:101C00000E3053401BB2FB81BB89FA89D1B2044A22
:101C1000D15400E000BF1437BD4680BC704700BF00
:101C20007801002080B58AB000AFF860B9607A60B2
:101C30003B6000237B6200233B620023FB610023A7
:101C4000BB6100237B61FB68802B00F395807B6880
:101C5000802B00F39180BB68402B00F38D803B68A4
:101C6000402B00F38980BB68C3F13F03BB603B6836
:101C7000C3F13F033B603A68BB68D31A7B627A6862
:101C8000FB68D31A3B627B6A002B06DA7B6A5B42F5
:101C90007B624FF0FF33BB6101E00123BB613B6A14
:101CA000002B06DA3B6A5B423B624FF0FF33FB617D
:101CB00001E00123FB617B6A5B007B623B6A5B00A6
:101CC0003B62FB68DBB2BA68D1B297F830201846A5
:101CD000FFF748FF3A6A7B6A9A4226DD3B6A5B104F
:101CE0007A6AD31A7B611BE07B69002B07DBBA6839
:101CF000BB691344BB607A693B6AD31A7B61FA689B
:101D0000FB691344FB607A697B6A13447B61FB685F
:101D1000DBB2BA68D1B297F830201846FFF722FF3D
:101D2000FA687B689A42DFD127E07B6A5B103A6AE7
:101D3000D31A7B611BE07B69002B07DBFA68FB6928
:101D40001344FB607A697B6AD31A7B61BA68BB690A
:101D50001344BB607A693B6A13447B61FB68DBB266
:101D6000BA68D1B297F830201846FFF7FBFEBA6880
:101D70003B689A42DFD100E000BF2837BD4680BDF6
:101D800080B483B000AF03460A46FB711346BB71B3
:101D9000FB79182B14D8BB79082B11D8BB79013BE0
:101DA0009BB2DB019AB2FB79013B9BB21946490019
:101DB0000B445B009BB213449AB2044B1A8000E0C0
:101DC00000BF0C37BD4680BC704700BF78050020BF
:101DD00080B485B000AF0346FB71194B1B885A1CB9
:101DE00091B2174A11801946164AFB7953540023C1
:101DF000FB7313E0FA7913469B001A44FB7B1A44E9
:101E0000114B1B88591C88B20F49088019460F4B8B
:101E10009A5C0F4B5A54FB7B0133FB73FB7B042B07
:101E2000E8D9094B1B885A1C91B2074A11801A46FF
:101E3000074B0021995400BF1437BD4680BC704742
:101E4000FC0500207C050020780500208C56000849
:101E50007801002080B584B000AF03460A46FB71CC
:101E60001346BB71FB79162B02D8BB79082B03D91B
:101E70001623FB710823BB71BA79FB79114618460A
:101E8000FFF77EFF0023FB730DE0FB7B0B4AD35C67
:101E9000002B05D0FB7B094AD35C1846FFF798FF5F
:101EA000FB7B0133FB73FA7BFB79C3F116039A4288
:101EB000EBDB00BF00BF1037BD4680BD60010020D6
:101EC00080B485B000AF0346FB710023BB730023D1
:101ED0007B7300233B730023FB7396E0FA79134670
:101EE0009B001A44FB7B1344564AD35C3B733B7BF9
:101EF00003F00103DBB21A46520013447B733B7BB1
:101F000003F00203DBB21A46520013445B00DBB25B
:101F10005AB297F90D3013435BB27B733B7B03F0EE
:101F20000403DBB21A46520013449B00DBB25AB2E0
:101F300097F90D3013435BB27B733B7B03F00803CF
:101F4000DBB21A4652001344DB00DBB25AB297F9F7
:101F50000D3013435BB27B733B7B1B093B733B7BB5
:101F600003F00103DBB21A4652001344BB733B7B00
:101F700003F00203DBB21A46520013445B00DBB2EB
:101F80005AB297F90E3013435BB2BB733B7B03F03D
:101F90000403DBB21A46520013449B00DBB25AB270
:101FA00097F90E3013435BB2BB733B7B03F008031E
:101FB000DBB21A4652001344DB00DBB25AB297F987
:101FC0000E3013435BB2BB731F4B1B8819461F4A6D
:101FD0007B7B53541C4B1B8801331C497A7BCA54AE
:101FE000194B1B8880331949BA7BCA54164B1B887E
:101FF00081331649BA7BCA54134B1B8802339AB2F9
:10200000114B1A80FB7B0133FB73FB7B042B7FF6A8
:1020100065AF0D4B1B885A1C91B20B4A11801A46B2
:102020000A4B00219954084B1B885A1C91B2064A4E
:1020300011801A46054B0021995400BF1437BD4644
:1020400080BC70478C56000878050020780100207D
:1020500080B485B000AF0346FB710023BB7300233F
:102060007B7300233B730023FB738AE0FA791346EA
:102070009B001A44FB7B13444B4AD35C3B733B7B72
:1020800003F00103DBB21A46520013447B733B7B1F
:1020900003F00203DBB21A46520013445B00DBB2CA
:1020A0005AB297F90D3013435BB27B733B7B03F05D
:1020B0000403DBB21A46520013449B00DBB25AB24F
:1020C00097F90D3013435BB27B733B7B03F008033E
:1020D000DBB21A4652001344DB00DBB25AB297F966
:1020E0000D3013435BB27B733B7B1B093B733B7B24
:1020F00003F00103DBB21A4652001344BB733B7B6F
:1021000003F00203DBB21A46520013445B00DBB259
:102110005AB297F90E3013435BB2BB733B7B03F0AB
:102120000403DBB21A46520013449B00DBB25AB2DE
:1021300097F90E3013435BB2BB733B7B03F008038C
:10214000DBB21A4652001344DB00DBB25AB297F9F5
:102150000E3013435BB2BB73144B1B881946144AF1
:102160007B7B5354114B1B8880331149BA7BCA5473
:102170000E4B1B8801339AB20C4B1A80FB7B013348
:10218000FB73FB7B042B7FF671AF084B1B885A1C3B
:1021900091B2064A11801A46054B0021995400BF9E
:1021A0001437BD4680BC70478C5600087805002067
:1021B0007801002080B584B000AF78600023FB7305
:1021C000FFF78EFC09E07B685A1C7A601B78184682
:1021D000FFF7FEFDFB7B0133FB737B681B78002B55
:1021E000F1D1FB7B18461037BD4680BD80B58AB063
:1021F00000AFF860B9607A602A4B7B620A233B62C9
:102200001CE0FA687B6AB2FBF3F23B6A013BD2B294
:1022100028333B4403F8182CFB687A6AB3FBF2F2CC
:10222000796A01FB02F29B1AFB607B6A1E4AA2FBE1
:102230000323DB087B623B6A013B3B623B6A002B6A
:10224000DFD10023FB6123E0BA68FB69D31A013BAD
:1022500028333B4413F8183C3033FB607B68012B78
:1022600005D1FB68DBB21846FFF7F2FE0DE07B6894
:10227000022B05D1FB68DBB21846FFF721FE04E014
:10228000FB68DBB21846FFF7A3FDFB690133FB6176
:10229000FA69BB689A42D7D3BB680133184628371E
:1022A000BD4680BD00CA9A3BCDCCCCCC80B586B0B3
:1022B00000AFF860B9607A607B68012B02D1124BE5
:1022C0007B6107E07B68022B02D1104B7B6101E050
:1022D0000F4B7B61FB68002B06DAFB685B42FB60FF
:1022E0007B692D20984702E07B6920209847FB6896
:1022F0007A68B9681846FFF779FF03460133184634
:102300001837BD4680BD00BF51200008C11E00081F
:10231000D11D000880B584B000AFBA607B60034671
:10232000FB730B46BB73BA7BFB7B11461846FFF76A
:1023300091FDBB681B78002B02D0B868FFF73AFF0D
:10234000BB69002B04D00022B9697868FFF74EFF03
:1023500000BF1037BD4680BD80B485B000AFF860C7
:10236000B9607A603B60FA68BB68D31AB9693A68A9
:102370008A1A03FB02F27968BB68CB1A92FBF3F26C
:102380003B68134418461437BD4680BC70470000B4
:10239000F0B589B002AF78604FF000037B616CE06C
:1023A0007869FEF7FDF866A3D3E90023FDF79AFFED
:1023B00002460B4610461946FEF7D2F90346184668
:1023C00002F042FAF8607869FEF7EAF85CA3D3E914
:1023D0000023FDF787FF02460B4610461946FEF71D
:1023E000BFF90346184602F067FAB8605849F86822
:1023F000FDF7BEFE03464FF085411846FEF706FA8C
:1024000003461846FEF780FB04465149B868FDF7BD
:10241000AFFE03464F491846FEF7F6F90346184645
:10242000FEF772FB05464C49F868FDF7A1FE03462E
:102430004FF085411846FEF7E9F903461846FEF7C6
:1024400063FB06464449B868FDF792FE03464149DE
:102450001846FEF7D9F903461846FEF755FB034622
:1024600001220092324629462046FFF7DBFB3B491A
:102470007869FEF7CBF903467B617869FEF790F83F
:1024800031A3D3E90023FEF743F90346002B87D19C
:102490007B68C3F561737B607B6803F5E1737B60E8
:1024A0007868FEF763FA03462D491846FDF760FE8B
:1024B00003463B61386902F0C7F9F860386902F0F9
:1024C000FBF9B8602249F868FDF752FE03464FF069
:1024D00085411846FEF79AF903461846FEF714FBA5
:1024E00004461B49B868FDF743FE03461D491846DC
:1024F000FEF78AF903461846FEF706FB05464FF03D
:102500008541F868FEF782F903461846FEF7FCFAA3
:1025100006461449B868FEF777F903461846FEF7F1
:10252000F3FA034601220092324629462046FFF77D
:1025300079FB00BF1C37BD46F0BD00BFAFF3008084
:10254000182D4454FB21E93F182D4454FB21F93F39
:102550000000BE42000082420000B242DB0F493E52
:1025600088C3E43A0000704290B587B002AF0346DA
:10257000FB710B46BB7113467B7105233B73012333
:10258000FB726423BB72BA7A3B7B013B92FBF3F391
:102590007B72FB79FB730023BB730FE0F87BB97987
:1025A000FA7BBB79043301240094FFF73BFBFA7BF1
:1025B0007B7A1344FB73BB7B0133BB73BA7B3B7BDE
:1025C0009A42EBD3FB79FB737A79FB7AB2FBF3F394
:1025D0007B7100237B730FE0F87BB979FA7BBB79C1
:1025E000023301240094FFF71DFBFA7BFB7A1344AE
:1025F000FB737B7B01337B737A7B7B799A42EBD3D2
:1026000007210120FFF726FC0348FFF7D3FD00BF99
:102610001437BD4690BD00BF7454000880B487B025
:1026200000AFF860B9607A603B6000237B61124BB9
:102630001B68DB43BA6813407B610F4ABB681360B9
:102640007B69002B13D07B68002B01D101237B60B9
:10265000FB681B683A689A4206D9FB681A687B686F
:102660001A44FB681A6002E0FB6800221A6000BF8F
:102670001C37BD4680BC70478006002080B584B002
:1026800000AF03463A60FB710B46BB713B685B6968
:10269000FB60BA79FB7911461846FFF7DBFB20484F
:1026A000FFF788FD3B689B68002201211846FFF771
:1026B0009DFD1C48FFF77EFD3868FEF717FE0346B8
:1026C00003F00103002B03D02D20FFF781FB02E074
:1026D0002B20FFF77DFBFB68134AA2FB0323DB08DB
:1026E000002202211846FFF781FD2E20FFF770FB24
:1026F000FA680D4BA3FB0213D80803469B00034462
:102700005B00D01A00220121FFF770FD0748FFF798
:1027100051FD4320FFF75CFB00BF1037BD4680BD75
:102720008854000890540008CDCCCCCC94540008B8
:1027300080B582B000AF03460A46FB711346BB71F9
:10274000BA79FB7911461846FFF784FB144B1B68D6
:10275000002202211846FFF749FD3A20FFF738FB17
:102760000F4B5B68002202211846FFF73FFD0C4B20
:102770009B6803F00103002B03D03A20FFF728FBEE
:1027800002E02020FFF724FB054B9B68002202217A
:102790001846FFF72BFD00BF0837BD4680BD00BFC0
:1027A0000006002080B584B002AFFEF767FC034648
:1027B0009B687B607B6842F62F22934202D842F6E8
:1027C00030237B60786864230093012344F2A012D5
:1027D00042F63021FFF7C0FD03467B607B68642B27
:1027E00001D964237B607B68DBB218460837BD469D
:1027F00080BD000080B500AF0348FEF7D7FD02485A
:10280000FEF7F4FD00BF80BD4006002080B584B017
:1028100002AFFFF78DF90023009300236A4A0121DC
:102820000120FFF777FD6948FEF7C9FF0346194607
:10283000012301226648FFF7F1FE654B1B68002B60
:1028400014D0062300930023012262495F48FEF75B
:102850007DFF604B1B68DBB20233D9B200230093CB
:1028600000235D4A1420FFF755FD02E0594B00227A
:102870001A605A4800F06EFE7860042300937B686B
:10288000574A02210120FFF745FD03210120FFF7F0
:10289000E1FA5448FFF78EFC534B9B687B607B68E2
:1028A000524AA2FB0323DB08002202211846FFF74D
:1028B0009DFC2E20FFF78CFA7A684C4BA3FB021389
:1028C000D80803469B0003445B00D01A0022012174
:1028D000FFF78CFC4648FFF76DFC04210120FFF751
:1028E000B9FA4448FFF766FC3F4BDB687B607B68C6
:1028F000414AA2FB03235B09002202211846FFF78D
:1029000075FC2E20FFF764FA7A683B4BA3FB021399
:102910005B09642101FB03F3D31A0022022118464C
:10292000FFF764FC5620FFF753FA2F4B1B8A7B807E
:1029300005210120FFF78EFA3048FFF73BFCB7F97D
:102940000230002208211846FFF7B0FC2C48FFF7A0
:1029500031FC254B5B8A7B8006210120FFF77AFA48
:102960002848FFF727FCB7F9023000220421184657
:10297000FFF79CFC2448FFF71DFC07210120FFF70F
:1029800069FA2248FFF716FC174B5B690022082101
:102990001846FFF72BFC1E48FFF70CFC082101200E
:1029A000FFF758FA1B48FFF705FC0F4B9B69002205
:1029B00008211846FFF71AFC1748FFF7FBFB00BF7A
:1029C0000837BD4680BD00BFA85400085C06002043
:1029D0007C06002084060020B45400080054004007
:1029E000B8540008C454000840060020CDCCCCCC1C
:1029F000D0540008D45400081F85EB51E05400085F
:102A0000EC540008F0540008FC540008005500087D
:102A10000C550008105500081C55000880B584B0FE
:102A200002AFFFF785F80023009300234E4A0121EF
:102A30000120FFF76FFC4D48FEF7C1FE0346194623
:102A4000012301224A48FFF7E9FD494B1B68002B8F
:102A500014D0062300930023012246494348FEF781
:102A600075FE444B1B68DBB20233D9B200230093DE
:102A70000023414A1420FFF74DFC02E03D4B0022A9
:102A80001A603C4B1B680222009200220321122094
:102A9000FFF740FCFEF7E6FA7860032300937B68BB
:102AA000364A02210120FFF735FCFEF7E7FA03461C
:102AB0005B697B60032300937B68314A02210C2011
:102AC000FFF728FCFEF7DAFA03465B687B60062313
:102AD00000937B682B4A03210120FFF71BFCFEF7C4
:102AE000CDFA03469B691B0E274A1361FEF7C6FA0F
:102AF00003469B699BB2244A5361FEF7BFFA034623
:102B0000DB691B0E214A1361FEF7B8FA0346DB6945
:102B10009BB21E4A53611C4A04210120FFF7AEFDFF
:102B20001A4A05210120FFF7A9FDFEF7A7FA03467F
:102B30009B687B60052300937B68154A0621012072
:102B4000FFF7E8FB1348FFF735FBFFF72BFE0346C3
:102B5000FB70FB781A4602210320FFF705FD00BF3A
:102B60000837BD4680BD00BF205500085C06002028
:102B70007C06002088060020B45400083055000868
:102B8000385500084055000810060020280600208F
:102B90004C5500085455000880B584B002AFFEF7CC
:102BA000C7FF01210120FFF755F91448FFF702FB89
:102BB00001210E20FFF7BCFDFFF7F4FD0346FB717A
:102BC000F87940F252330093322364220121FFF757
:102BD000C3FB03461A460A4B1A60FB790322009294
:102BE000084A02210120FFF795FB054B1B68184698
:102BF000FFF7CEFB00BF0837BD4680BD5855000823
:102C0000040000206455000880B500AFFEF736FAD6
:102C10000346DB6819462448FEF7DCFD234B1B689E
:102C2000022B1CD0022B20D8002B02D0012B0BD062
:102C30001BE0002201211E4801F0B6FC0022022107
:102C40001C4801F0B1FC1AE0002201211A4801F0F1
:102C5000ABFC00220A21194801F0A6FC0FE000227B
:102C60000221174801F0A0FC09E0FEF761FF0121F5
:102C70000120FFF7EFF81348FFF79CFA00BFFEF7BB
:102C8000FDF9034693F8203003F00403DBB2002B78
:102C900004D00D4B4FF480321A6102E00A4B01223E
:102CA0001A6100BF80BD00BF000600208C06002016
:102CB000DD0D00081D2A0008F52700080D28000872
:102CC000992B000870550008000C014080B500AF3A
:102CD00001F00AFAFDF73EFFFEF7C0FB41F64C514A
:102CE0001E4801F085FBFA20FEF7F4FBFEF710FF0B
:102CF0001B4B1C4A1A601A4B0B225A60184B194A7C
:102D00009A60174B0C22DA60154B164A1A61144B65
:102D10000A225A611248FEF775FC134B01229A6091
:102D2000124B02229A60FEF739F801F031FC0522BD
:102D300000210F4801F038FC4FF47A7200210D4851
:102D400001F032FC142200210B4801F02DFC01F0AF
:102D5000AFFA62B600BF01F0B7FCFCE700380140F3
:102D60005C0600200010014010060020280600200C
:102D70001D1B000859120008092C000880B500AF7F
:102D800001F0E2FCFEF784F9FEF75AFBFEF7B0F91A
:102D90000248FEF75DFC00BF80BD00BF5C0600205E
:102DA00080B400AF044B1B69034A43F080031361F6
:102DB00000BFBD4680BC70470020024080B400AF19
:102DC000044B054A5A60034B044A5A6000BFBD4693
:102DD00080BC70470020024023016745AB89EFCDDE
:102DE00080B483B000AF786000BF194BDB6803F09C
:102DF0000103002BF9D1164BDB6803F02003002BF5
:102E000002D0134B2022DA60114B1B69104A43F0A9
:102E1000020313610E4A7B6853610D4B1B690C4A18
:102E200043F04003136100BF094BDB6803F020034C
:102E3000002BF9D0064B2022DA60054B1B69044AAF
:102E400023F00203136100BF0C37BD4680BC7047FE
:102E50000020024080B483B000AF7860396000BFCA
:102E60001E4BDB6803F00103002BF9D11B4BDB6821
:102E700003F02003002B02D0184B2022DA60174BFE
:102E80001B69164A43F0010313613B687A6892B2EA
:102E90001A8000BF114BDB6803F02003002BF9D030
:102EA0000E4B2022DA607B681A0C3B68023392B228
:102EB0001A8000BF094BDB6803F02003002BF9D018
:102EC000064B2022DA60054B1B69044A23F00103FC
:102ED000136100BF0C37BD4680BC70470020024024
:102EE00080B483B000AF78607B68144A934206D107
:102EF000134B9B69124A43F00403936117E07B680C
:102F0000104A934206D10E4B9B690D4A43F00803C9
:102F100093610CE07B680C4A934206D1084B9B6995
:102F2000074A43F01003936101E0002300E001230E
:102F300018460C37BD4680BC704700BF00080140F2
:102F400000100240000C01400010014080B582B02A
:102F500000AF786039607868FFF7C2FF0346002B46
:102F600033D03B68072B17D83B689B003B607B68DE
:102F70001B6803213A6801FA02F21A437B681A605F
:102F80007B681B683A680232032101FA02F2D243DD
:102F90001A407B681A6019E03B68083B9B003B6065
:102FA0007B685B6803213A6801FA02F21A437B6886
:102FB0005A607B685B683A680232032101FA02F2C8
:102FC000D2431A407B685A6000E000BF0837BD4614
:102FD00080BD000080B400AF044BDB681B0A03F027
:102FE00007031846BD4680BC704700BF00ED00E0F7
:102FF00080B483B000AF0346FB7197F90730002B14
:103000000BDBFB7903F01F02064997F907305B09D8
:10301000012000FA02F241F8232000BF0C37BD4620
:1030200080BC704700E100E080B483B000AF03468D
:103030003960FB7197F90730002B0ADB3B68DAB285
:103040000C4997F907301201D2B20B4483F80023E0
:103050000AE03B68DAB20849FB7903F00F03043B4E
:103060001201D2B20B441A7600BF0C37BD4680BCA9
:10307000704700BF00E100E000ED00E080B489B0DF
:1030800000AFF860B9607A60FB6803F00703FB618A
:10309000FB69C3F10703042B28BF0423BB61FB6951
:1030A0000433062B02D9FB69033B00E000237B615C
:1030B0004FF0FF32BB6902FA03F3DA43BB681A40F0
:1030C0007B699A404FF0FF317B6901FA03F3D943E2
:1030D0007B680B40134318462437BD4680BC7047BD
:1030E00080B485B000AF786039600023FB6008E0F1
:1030F000FB680133FB60FB68B3F57A7F01D30123E2
:1031000006E07B685A693B681340002BF0D000232F
:1031100018461437BD4680BC7047000080B483B0A9
:1031200000AF78603960184B9B69174A43F0080379
:1031300093617B68154A934216D13B68012B0CD1F1
:10314000134B5B68124A43F002035360114B5B68F8
:10315000104A43F0EE03536010E00E4B1B680D4A1B
:1031600043F06E43136009E07B680B4A934205D13C
:10317000084B5B68074A43F46E43536000BF0C374B
:10318000BD4680BC704700BF0010024000540040A4
:1031900000000140000C01400058004080B582B0A2
:1031A00000AF78600B46FB707B681B6843F480724D
:1031B0007B681A6001217868FFF792FF0346002BB5
:1031C00003D07B685B69022327E07B685B69FA7840
:1031D0007B681A6102217868FFF782FF0346002BA3
:1031E00016D07B685B6923F480627B685A617B68D8
:1031F0000C4A934205D10C4B1B6801330A4A1360F9
:1032000004E00A4B1B680133084A1360032304E0FF
:103210007B685B697B689B69002318460837BD465D
:1032200080BD00BF0054004090060020940600209E
:1032300080B582B000AF78600B46FB708021786863
:10324000FFF74EFF0346002B01D0042303E0FA787A
:103250007B681A61002318460837BD4680BD80B5DB
:1032600086B000AFF860B9607A607B68012B20D12E
:10327000FB681B6823F48062FB681A60FB681B68AC
:1032800043F40072FB681A604021F868FFF728FFDA
:103290000346002B01D0052398E0FB681B69DAB2D6
:1032A000BB681A70FB681B6843F48062FB681A6095
:1032B0008BE07B68022B32D1FB681B6843F4006211
:1032C000FB681A60FB681B6823F48062FB681A6065
:1032D0000421F868FFF704FF0346002B01D0062302
:1032E00074E0FB681B6843F40072FB681A60FB68BB
:1032F0001B69DAB2BB681A70FB681A69BB680133D4
:10330000D2B21A70FB681B6823F40062FB681A6073
:10331000FB681B6843F48062FB681A6055E0002379
:103320007B6112E04021F868FFF7DAFE0346002BCC
:1033300001D005234AE0FB681969BA687B69134428
:10334000CAB21A707B6901337B617B68033B7A697F
:103350009A42E7D30421F868FFF7C2FE0346002B28
:1033600001D0062332E0FB681B6823F48062FB680F
:103370001A60FB681969BA687B691344CAB21A708B
:10338000FB681B6843F40072FB681A60FB681969EC
:103390007B690133BA681344CAB21A704021F868D5
:1033A000FFF79EFE0346002B01D005230EE0FB68CD
:1033B00019697B690233BA681344CAB21A70FB6890
:1033C0001B6843F48062FB681A60002318461837B4
:1033D000BD4680BD80B582B000AF786004217868BA
:1033E000FFF77EFE0346002B01D0062306E07B6834
:1033F0001B6843F400727B681A6000231846083784
:10340000BD4680BD80B586B000AFF860B9607A6017
:1034100000237B6112E0BA687B6913441B7819466C
:10342000F868FFF705FF03463B613B69002B02D0BC
:103430003B69DBB210E07B6901337B617A697B68B1
:103440009A42E8D38021F868FFF74AFE0346002B32
:1034500001D0042300E0002318461837BD4680BD84
:1034600080B586B000AFF860B9607A607A68B968F4
:10347000F868FFF7C7FF03467B617B69002B02D02A
:103480007B69DBB203E0F868FFF7A4FF0346184648
:103490001837BD4680BD000080B582B000AF7860AF
:1034A000396039687868FFF739FE7B68274A9342AC
:1034B00006D1274BDB69264A43F40013D36105E0AC
:1034C000234BDB69224A43F48003D3617B681B688A
:1034D00023F001027B681A607B681B6843F400429A
:1034E0007B681A607B681B6823F400427B681A6063
:1034F0007B689B6943F001027B689A617B680022CC
:103500005A607B685B6843F024027B685A607B6882
:103510000022DA617B68DB6943F400427B68DA6190
:103520007B68DB6943F01E027B68DA617B681B6A9B
:1035300043F00C027B681A627B681B6843F001024F
:103540007B681A6000BF0837BD4680BD005400404C
:103550000010024080B483B000AF78607B68064AF8
:10356000934202D1054B1B6801E0054B1B681846CE
:103570000C37BD4680BC70470054004090060020C8
:103580009406002080B584B000AFF8607B600B46E5
:10359000FB721346BB72FB7A1946F868FFF7FEFD13
:1035A0000346002B01D0032311E0BA7AFB681A61AD
:1035B0008021F868FFF794FD0346002B01D0042317
:1035C00005E0BA697968F868FFF74AFF03461846CC
:1035D0001037BD4680BD80B584B000AFF8607B6019
:1035E0000B46FB721346BB72FB7A1946F868FFF76D
:1035F000D5FD0346002B01D0032324E0BA7AFB68F3
:103600001A618021F868FFF76BFD0346002B01D09B
:10361000042318E0FB681B6843F40072FB681A601F
:10362000FB7A43F00103DBB21946F868FFF7B6FDF9
:103630000346002B01D0032305E0BA697968F868D6
:10364000FFF70DFE034618461037BD4680BD00004B
:1036500080B584B000AFF860B9607A60B968F86886
:10366000FFF75CFDFB68284A934206D1274BDB69D4
:10367000264A43F40013D36105E0244BDB69234A57
:1036800043F48003D361FB681B6843F00102FB68CD
:103690001A60FB681B6823F00202FB681A60FB6873
:1036A0009B6923F00102FB689A61FB6800225A6162
:1036B0007B685A00FB689A60FB681B6843F4806271
:1036C000FB681A60FB6800225A60FB685B6843F085
:1036D0002402FB685A60FB680022DA61FB68DB6940
:1036E00043F40042FB68DA61FB68DB6943F01E02C9
:1036F000FB68DA61FB681B6A43F00C02FB681A6224
:1037000000BF1037BD4680BD00540040001002408D
:1037100080B582B000AF78607B681B68264A934210
:1037200003D1264A7B68136007E07B681B68244A44
:1037300093423CD1234A7B6813607B685B68002B13
:1037400008D17B681A687B689B6819461046FFF7AA
:10375000A3FE08E07B6818687B6899687B689B69B2
:103760001A46FFF775FF7B681B685A687B681B6801
:1037700042F440725A607B681B680F4A934207D13B
:1037800002212020FFF750FC2020FFF731FC0FE042
:1037900002212120FFF748FC02212220FFF744FCF0
:1037A0002120FFF725FC2220FFF722FC00E000BFCC
:1037B0000837BD4680BD00BF005400409806002079
:1037C000005800409C06002080B483B000AF7860B1
:1037D00039607B685A693B68DB431A407B685A61F1
:1037E0007B681B6843F4C0627B681A6000BF0C37BB
:1037F000BD4680BC704780B584B000AF78607B6800
:103800001B68FB60FB685B6903F48063002B05D0D9
:103810004FF48061F868FFF7D7FF44E0FB685B690D
:1038200003F48073002B04D04FF48071F868FFF725
:10383000CBFFFB685B6903F40073002B04D04FF4EB
:103840000071F868FFF7C0FFFB685B6903F4006371
:10385000002B04D04FF40061F868FFF7B5FFFB6858
:103860005B6903F48053002B05D0FB685B6923F48C
:103870008052FB685A61FB685B6903F48043002B4C
:1038800005D0FB685B6923F48042FB685A61FB68E2
:103890005B6903F40043002B05D0FB685B6923F4EC
:1038A0000042FB685A611037BD4680BD80B582B0CA
:1038B00000AF78607B68094A934205D1084B1B68CA
:1038C0001846FFF798FF04E0064B1B681846FFF701
:1038D00092FF00BF0837BD4680BD00BF00540040C6
:1038E000980600209C06002080B582B000AF78606A
:1038F0007868FFF70DFF064B5B69054A43F001034B
:1039000053617B6800221A6100BF0837BD4680BD45
:103910000010024080B586B000AF78607B681B68FD
:103920003B617B681B69002B01D003235EE072B60C
:1039300000BF3B692F4A934202D12F4B7B6101E0CC
:103940002E4B7B617B691B6823F001027B691A6047
:103950003B6910331A467B699A607B6868331A4664
:103960007B69DA607B68D3F8A8207B695A607B6941
:1039700043F282021A60FFF72DFB03460022012169
:103980001846FFF77BFB034619461120FFF74CFB57
:103990001120FFF72DFB7B689B69DBB243F001032D
:1039A000DBB219463869FFF7F9FB0346FB60FB6899
:1039B000002B03D062B600BF042317E03B695B68AD
:1039C00043F4C0523B695A603B691B6843F4806210
:1039D0003B691A607B691B6843F001027B691A60CE
:1039E0007B6803221A6162B600BF032318461837AA
:1039F000BD4680BD00540040800002405800024097
:103A000080B483B000AF78603960084B5A680749CA
:103A10003B6813434B607B681B6823F001027B68A3
:103A20001A6000BF0C37BD4680BC704700000240E2
:103A300080B582B000AF78601D4B1B6803F40013A3
:103A4000002B17D04FF400111A48FFF7D9FF00BF21
:103A50007B681B685B6903F00403002BF8D07B686C
:103A60001B681A687B681B6842F4C0621A607B6836
:103A700000221A610E4B1B6803F48003002B05D053
:103A80000B4B5B680A4A43F480035360084B1B6886
:103A900003F40003002B07D04FF400010548FFF7A3
:103AA000AFFF7B6800221A6100BF0837BD4680BDAA
:103AB000000002406C00024080B582B000AF786028
:103AC0001A4B1B6803F00073002B13D04FF00071EA
:103AD0001748FFF795FF7B681B681A687B681B68AF
:103AE00042F4C0621A607B68D3F8B03098477B68B4
:103AF00000221A610D4B1B6803F08063002B05D078
:103B00000A4B5B68094A43F080635360074B1B68AC
:103B100003F00063002B04D04FF000610448FFF76E
:103B20006FFF00BF0837BD4680BD00BF00000240E8
:103B30008000024080B500AF034B1B681846FFF7BA
:103B400077FF00BF80BD00BF9806002080B500AFA2
:103B5000034B1B681846FFF7AFFF00BF80BD00BFD7
:103B60009806002080B483B000AF78607B683C4A40
:103B700093422FD13B4B9B693A4A43F00403936134
:103B8000394B1B68384A23F04C4323F4400313603D
:103B9000354B1B68344A43F430031360324B1B68C7
:103BA000314A23F0407313602F4B1B682E4A43F0B9
:103BB000006313602C4B40221A612B4B1B682A4A6E
:103BC00043F030431360274B9B69264A43F48053EC
:103BD000936133E07B68254A93423BD1214B9B693B
:103BE000204A43F008039361214B5B68204A23F08D
:103BF0004C4323F4400353601D4B5B681C4A43F461
:103C0000300353601A4B5B68194A23F040735360CA
:103C1000174B5B68164A43F000635360144B4FF434
:103C200080421A61124B5B68114A43F03043536083
:103C30000C4BDB690B4A43F48043D3617B68002261
:103C40001A607B681B6843F4517343F003037A687E
:103C5000136000E000BF0C37BD4680BC704700BF5A
:103C600000300140001002400008014000380040D0
:103C7000000C014080B485B000AF78600B46FB704B
:103C80000023FB6007E0FB680133FB60B3F5A04F46
:103C900001D900231CE07B689B6803F00203002B22
:103CA000F1D00023FB60FA787B68DA6007E0FB68FC
:103CB0000133FB60B3F5A04F01D9002308E07B6816
:103CC0009B6803F08003002BF1D17B68DB68DBB2DB
:103CD00018461437BD4680BC7047000080B400AF62
:103CE0000B4B9B680A4B9B68094A03F001039360E6
:103CF000074B9B68064A03F020039360044B9B68C4
:103D0000034A03F04003936000BFBD4680BC704788
:103D10000038004080B500AFFFF730F800BF80BD2D
:103D200080B400AF00BFBD4680BC704780B400AF18
:103D300000BFBD4680BC704780B400AF00BFBD4629
:103D400080BC704780B400AF00BFBD4680BC7047E8
:103D500080B400AF00BFBD4680BC704780B400AFE8
:103D600000BFBD4680BC704780B400AF00BFBD46F9
:103D700080BC704780B400AF00BFBD4680BC7047B8
:103D800080B400AF00BFBD4680BC704780B400AFB8
:103D900000BFBD4680BC704780B400AF00BFBD46C9
:103DA00080BC704780B400AF00BFBD4680BC704788
:103DB00080B400AF00BFBD4680BC704780B400AF88
:103DC00000BFBD4680BC704780B400AF00BFBD4699
:103DD00080BC704780B500AFFFF7ACFE00BF80BD70
:103DE00080B500AFFFF7B2FE00BF80BD80B400AF6A
:103DF00000BFBD4680BC704780B400AF00BFBD4669
:103E000080BC704780B400AF00BFBD4680BC704727
:103E100080B400AF00BFBD4680BC704780B400AF27
:103E200000BFBD4680BC704780B400AF00BFBD4638
:103E300080BC704780B400AF00BFBD4680BC7047F7
:103E400080B400AF044B1B69034A23F001031361E4
:103E500000BFBD4680BC7047002C014080B400AF5D
:103E600000BFBD4680BC704780B400AF00BFBD46F8
:103E700080BC704780B400AF4FF080431B694FF0A7
:103E8000804223F00103136100BFBD4680BC704730
:103E900080B400AF00BFBD4680BC704780B400AFA7
:103EA00000BFBD4680BC704780B400AF00BFBD46B8
:103EB00080BC704780B500AF0248FFF7F7FC00BF39
:103EC00080BD00BF0054004080B400AF00BFBD46BD
:103ED00080BC704780B400AF00BFBD4680BC704757
:103EE00080B400AF00BFBD4680BC704780B400AF57
:103EF00000BFBD4680BC704780B400AF00BFBD4668
:103F000080BC704780B400AF00BFBD4680BC704726
:103F100080B400AF00BFBD4680BC704780B400AF26
:103F200000BFBD4680BC704780B400AF00BFBD4637
:103F300080BC704780B400AF00BFBD4680BC7047F6
:103F400080B400AF00BFBD4680BC704780B400AFF6
:103F500000BFBD4680BC704780B400AF00BFBD4607
:103F600080BC704780B400AF00BFBD4680BC7047C6
:103F700080B400AF00BFBD4680BC704780B400AFC6
:103F800000BFBD4680BC704780B400AF00BFBD46D7
:103F900080BC704780B400AF00BFBD4680BC704796
:103FA00080B400AF00BFBD4680BC704780B400AF96
:103FB00000BFBD4680BC704780B400AF00BFBD46A7
:103FC00080BC704780B400AF00BFBD4680BC704766
:103FD00080B400AF00BFBD4680BC704780B400AF66
:103FE00000BFBD4680BC704780B483B000AF0023E3
:103FF0007B6000233B603A4B1B68394A43F48033B3
:104000001360374B1B6803F400333B607B6801335C
:104010007B603B68002B04D17B684FF6FF729342B4
:10402000EFD12F4B1B6803F40033002B02D0012388
:104030003B6001E000233B603B68012B49D1294BE9
:104040001B68284A43F010031360264B1B68254A5F
:1040500023F007031360234B1B68224A43F0040339
:1040600013601F4B5B681E4A43F4806353601C4B14
:104070005B681B4A23F47C135360194B5B68184A36
:1040800043F4E8135360164B1B68154A43F08073E2
:10409000136000BF124B1B6803F00073002BF9D0B4
:1040A0000F4B5B680E4A23F0030353600C4B5B68B5
:1040B0000B4A43F00203536000BF094B5B6803F0F7
:1040C0000C03082BF9D1064B1B68054A43F4002367
:1040D00013603B6818460C37BD4680BC704700BF74
:1040E000001002400020024080B500AF134B1B6857
:1040F000124A43F001031360104B5A680F49104BEA
:1041000013404B600D4B1B680C4A23F0847323F45F
:1041100080331360094B1B68084A23F48023136023
:10412000064B5B68054A23F4FE035360034B4FF4D0
:104130001F029A60FFF758FF00BF80BD00100240C9
:104140000000FFF080B400AF00BFBD4680BC7047E8
:1041500080B500AFFDF7ECFC01210120FDF77AFEF0
:104160000348FEF727F8FDF7D9FC00BF80BD00BF6C
:104170008055000880B400AF00BFBD4680BC7047CA
:1041800080B400AF00BFBD4680BC704780B400AFB4
:1041900000BFBD4680BC704780B400AF00BFBD46C5
:1041A00080BC704780B400AF044BDB681B0A03F08F
:1041B00007031846BD4680BC704700BF00ED00E015
:1041C00080B483B000AF0346FB7197F90730002B32
:1041D0000BDBFB7903F01F02064997F907305B09F7
:1041E000012000FA02F241F8232000BF0C37BD463F
:1041F00080BC704700E100E080B483B000AF0346AC
:104200003960FB7197F90730002B0ADB3B68DAB2A3
:104210000C4997F907301201D2B20B4483F80023FE
:104220000AE03B68DAB20849FB7903F00F03043B6C
:104230001201D2B20B441A7600BF0C37BD4680BCC7
:10424000704700BF00E100E000ED00E080B489B0FD
:1042500000AFF860B9607A60FB6803F00703FB61A8
:10426000FB69C3F10703042B28BF0423BB61FB696F
:104270000433062B02D9FB69033B00E000237B617A
:104280004FF0FF32BB6902FA03F3DA43BB681A400E
:104290007B699A404FF0FF317B6901FA03F3D94300
:1042A0007B680B40134318462437BD4680BC7047DB
:1042B00080B500AF0E4B0F4A5A600D4B0D4A9A6005
:1042C0000B4B07221A60FFF76DFF03460022032104
:1042D0001846FFF7BBFF034619464FF0FF30FFF7C4
:1042E0008BFF4FF0FF30FFF76BFF00BF80BD00BFBB
:1042F00010E000E03F19010080B483B000AF034636
:10430000FB7197F90730002B0BDBFB7903F01F02E1
:10431000064997F907305B09012000FA02F241F8DB
:10432000232000BF0C37BD4680BC704700E100E091
:1043300080B483B000AF03463960FB7197F9073052
:10434000002B0ADB3B68DAB20C4997F907301201FF
:10435000D2B20B4483F800230AE03B68DAB2084982
:10436000FB7903F00F03043B1201D2B20B441A761F
:1043700000BF0C37BD4680BC704700BF00E100E0C5
:1043800000ED00E080B400AF034B1B68024B5B689C
:1043900000BFBD4680BC70470038014080B500AF0B
:1043A000124B1B6803F02003002B07D00F4B1B6838
:1043B00003F00F03002B01D0FFF7E4FF0B4B1B684A
:1043C00003F00803002B01D0FFF7DCFF074B1B684D
:1043D00003F04003002B05D0044BDB68034A23F0B5
:1043E0004003D360014B1B6800BF80BD0038014013
:1043F00080B582B000AF78600B467B807B68384A1E
:10440000934212D1374B5B68364A23F44C635360B6
:10441000344B5B68334A43F496635360324B9B6979
:10442000314A43F4804393612CE07B682F4A9342E6
:1044300012D12C4B1B682B4A23F44C431360294B9D
:104440001B68284A43F496431360274BDB69264ACE
:1044500043F40033D36115E07B68254A93423BD196
:10446000244B5B68234A23F44C435360214B5B6825
:10447000204A43F4964353601B4BDB691A4A43F4CA
:104480008023D3617A887B689A607B68DB6823F439
:1044900080527B68DA607B681B6923F440527B683A
:1044A0001A617B6842F22C02DA607B685B6943F038
:1044B00080027B685A610F212520FFF739FF2520F4
:1044C000FFF71AFF084B5B69074A43F0010353618A
:1044D000034800F011F800E000BF0837BD4680BD7A
:1044E0000038014000080140001002400044004034
:1044F00000480040000C014080B483B000AF7860F9
:104500007B681A1D094B9A60084B1B68074A43F0E9
:1045100010031360054B1B68044A43F080031360CB
:1045200000BF0C37BD4680BC704700BF440002404E
:1045300080B400AF0D4B1B6803F40053002B11D067
:104540000A4B5B68094A43F400535360084B1B68ED
:10455000074A23F001031360064BDB68054A43F06A
:104560004003D36000BFBD4680BC704700000240DE
:10457000440002400038014080B400AF00BFBD4697
:1045800080BC704780B400AF00BFBD4680BC7047A0
:1045900080B400AF034B00221A6000BFBD4680BC50
:1045A000704700BF4007002080B586B000AFF860BC
:1045B000B9607A60244B7B61FB68002B40D00023FC
:1045C0003B6118E07B691B68FA689A420DD1FFF7DE
:1045D000D3FF7B69BA685A607B697A689A607B69A5
:1045E00000221A73FFF7CEFF2BE07B6910337B614B
:1045F0003B6901333B61154B1B683A699A42E1D331
:10460000124B1B68092B1CD8FFF7B6FF0F4B1B681A
:104610001B010D4A13447B617B69FA681A607B6950
:10462000BA685A607B697A689A607B6900221A735B
:10463000064B1B680133054A1360FFF7A3FF00E038
:1046400000BF1837BD4680BDA006002040070020EF
:1046500090B585B000AF78600023FB6028E0184A71
:10466000FB681B0113441B687A689A421DD1FFF74F
:1046700083FF144B1B68013BFA689A420DD0114B23
:104680001B68013B0E49FA68120111440C4A1B01D8
:1046900013440C460FCB84E80F000A4B1B68013B08
:1046A000084A1360FFF76EFF07E0FB680133FB6009
:1046B000044B1B68FA689A42D1D31437BD4690BDAB
:1046C000A00600204007002080B584B000AF1C4B3E
:1046D000FB600023BB6029E0FB681B7BDBB2012B86
:1046E0001ED1FFF749FFFB681B687B60FB689B6876
:1046F000002B05D1FB681B681846FFF7A9FF0BE0EC
:10470000FB6800221A73FB685B68002B04D1FB680E
:104710009B685A1EFB685A60FFF734FF7B68984716
:10472000FB681033FB60BB680133BB60054B1B6843
:10473000BA689A42D0D300BF00BF1037BD4680BDD3
:10474000A00600204007002080B483B000AF144BC7
:104750007B60144B1B680133124A136000233B60DB
:1047600012E07B685B68002B03D17B6801221A731F
:1047700004E07B685B685A1E7B685A607B68103374
:104780007B603B6801333B60074B1B683A689A4289
:10479000E7D300BF00BF0C37BD4680BC704700BFE9
:1047A000A006002044070020400700200D48854651
:1047B000FDF75EF80C480D490D4A002302E0D4587D
:1047C000C4500433C4188C42F9D30A4A0A4C00235B
:1047D00001E013600432A242FBD300F011F8FEF7AF
:1047E00075FAFEE7005000200000002008000020BD
:1047F000645F00080800002048070020FEE7000072
:1048000070B500260C4D0D4C641BA410A64209D1B6
:1048100000F024FE00260A4D0A4C641BA410A64298
:1048200005D170BD55F8043B98470136EEE755F8C1
:10483000043B98470136F2E75C5F00085C5F0008C4
:104840005C5F0008605F000807B51A4A20F000436B
:104850009342014605DC002103B05DF804EB00F053
:1048600065B8B3F1FF4F04DBFBF7CEFF03B05DF893
:1048700004FB694600F050F900F00302012A07D05A
:10488000022A0CD082B90199009800F04FF8EDE7A8
:104890000199009800F0CAF800F10040E6E701999C
:1048A000009800F043F8F7E701220199009800F022
:1048B000BDF8DBE7D80F493F07B51B4A20F000439E
:1048C0009342014606DC0022002103B05DF804EBB0
:1048D00000F0ACB8B3F1FF4F04DBFBF795FF03B07A
:1048E0005DF804FB694600F017F900F003000128A9
:1048F00008D002280BD090B901220199009800F04D
:1049000095F8ECE70199009800F010F8E7E701222C
:104910000199009800F08AF800F10040DFE7019962
:10492000009800F003F8F7E7D80F493F2DE9F04170
:1049300020F00044B4F1485F0646884603DAFCF7ED
:10494000E3F800285CD031463046FBF711FC4FF00D
:104950007C510546FBF70CFC2B4907462846FBF724
:1049600007FC2A49FBF752FF2946FBF701FC2849BF
:10497000FBF74AFF2946FBF7FBFB2649FBF746FFFF
:104980002946FBF7F5FB2449FBF73EFF2946FBF7D9
:10499000EFFB2249FBF73AFF2946FBF7E9FB2946E3
:1049A000FBF7E6FB414605463046FBF7E1FB0146D7
:1049B0002846FBF729FF1A4B05469C420ADC0146B4
:1049C0003846FBF721FF01464FF07E50FBF71CFFF6
:1049D000BDE8F081134B4FF07E509C42CCBF124C8F
:1049E00004F17F442146FBF70FFF21460646384677
:1049F000FBF70AFF2946FBF707FF01463046E5E7CC
:104A00004FF07E50E4E700BF4ED747ADF6740F314C
:104A10007CF29334010DD037610BB63AABAA2A3D34
:104A20009999993E0000483F0000903E2DE9F843D7
:104A300020F00043B3F1485F04460F46914603DA85
:104A4000FCF762F8002835D021462046FBF790FBA2
:104A5000054601462046FBF78BFB294906462846BA
:104A6000FBF786FB2749FBF7CFFE2946FBF780FBC8
:104A70002549FBF7CBFE2946FBF77AFB2349FBF7D9
:104A8000C3FE2946FBF774FB2149FBF7BFFE8046B6
:104A9000B9F1000F11D101462846FBF769FB1D490A
:104AA000FBF7B2FE3146FBF763FB01462046FBF7FE
:104AB000ADFE04462046BDE8F8834FF07C513846F1
:104AC000FBF756FB414681463046FBF751FB01465A
:104AD0004846FBF799FE2946FBF74AFB3946FBF7A8
:104AE00093FE0C4905463046FBF742FB014628463B
:104AF000FBF78CFE01462046FBF786FED9E700BF98
:104B0000D3C92E2F342FD7321BEF3836010D503931
:104B10008988083CABAA2A3E2DE9F04FA04A20F034
:104B2000004696420C46824687B004DC00230860AB
:104B30004B6000251AE09B4A96424BDC00289A49BC
:104B40009A4F26F00F0623DDFBF75EFEBE420546B8
:104B500010D09749FBF758FE014620602846FBF726
:104B600053FE9349FBF750FE01256060284607B0CD
:104B7000BDE8F08F8F49FBF747FE8F490546FBF7ED
:104B800043FE014620602846FBF73EFE8A49E9E7DE
:104B9000FBF73CFEBE4205460ED08549FBF736FECC
:104BA000014620602846FBF72FFE8149FBF72EFEC9
:104BB0004FF0FF356060D9E77E49FBF727FE7E495D
:104BC0000546FBF723FE014620602846FBF71CFE46
:104BD0007949EBE7794A964200F3918000F0FAF8C0
:104BE00077490746FBF7C4FA4FF07C51FBF70EFEFE
:104BF000FBF78AFF0546FBF7BDFE6B498146FBF7D5
:104C0000B7FA01463846FBF7FFFD6949804648463A
:104C1000FBF7AEFA1F2D07460CDC6A4A691E52F8F4
:104C2000212026F0FF03934204D039464046FBF78B
:104C3000EBFD0BE039464046FBF7E6FDC0F3C753FA
:104C4000C3EBD653082B4FEAE65B01DC206026E07D
:104C500058494846FBF78CFA074601464046FBF7A1
:104C6000D3FD014606464046FBF7CEFD3946FBF72D
:104C7000CBFD074650494846FBF77AFA3946FBF721
:104C8000C3FD014607463046FBF7BEFDC0F3C753E0
:104C9000ABEB030BBBF1190F16DCB04620602668A6
:104CA00040463146FBF7B0FD3946FBF7ADFDBAF1A2
:104CB000000F6060BFF65AAF06F1004600F10040F9
:104CC000266060606D4251E73F494846FBF750FA65
:104CD000074601463046FBF797FD014680463046C1
:104CE000FBF792FD3946FBF78FFD064637494846EC
:104CF000FBF73EFA3146FBF787FD074695E7B6F12D
:104D0000FF4F05DB0146FBF77FFD6060206010E789
:104D1000F715863FA6EBC7563046FBF7F5FEFBF7C7
:104D200029FE014603903046FBF76EFD4FF08741A8
:104D3000FBF71EFA0646FBF7E7FEFBF71BFE0146F4
:104D4000049005463046FBF75FFD4FF08741FBF7C7
:104D50000FFA00210590FBF7A5FEF0B100212846CF
:104D6000FBF7A0FE002814BF01230223184A2146A6
:104D70000192022203A800923A4600F02FF8BAF1FD
:104D8000000F0546BFF6F2AE236803F1004323602F
:104D9000636803F10043636094E70323E6E700BF21
:104DA000D80F493FE3CB1640800FC93FD00FC93F12
:104DB000434435370044353708A3852E800F4943D7
:104DC00084F9223F8C5B000800A3852E32318D24AC
:104DD0000C5C000820F00040704700002DE9F04F07
:104DE000DBB002920493649ABB4B059053F82230D7
:104DF00000910193049B013B0393029B1A1DC0F297
:104E00009B80DC1E48BF1C1DE41000254FF0000BEA
:104E1000671CFB000693029B039AA3EBC707019B49
:104E2000A4EB020803EB0209659B1EAE03EB880AA4
:104E30004D4540F38380049A1EAB03EB82054FF08F
:104E4000000900230DF58C7B019A914540F39E806B
:104E500013460AAA02EB83030893659BDDF80480DE
:104E600003EB840307930AAC2646C3464FF08749F9
:104E70005AAB03EB880353F8505C0DF58C7ABBF109
:104E8000000F00F388803946284600F05BFA4FF0A7
:104E900078510546FBF76CF900F0A0FA4FF082411B
:104EA000FBF766F901462846FBF7AEFC0546FBF723
:104EB0002BFE0646FBF75EFD01462846FBF7A4FCE9
:104EC000002F814640F3868008F1FF320AAB53F889
:104ED0002250C7F1080145FA01F31E448B40ED1A38
:104EE0000AAB43F82250C7F107031D41002D7FDDB7
:104EF000002292460136904500F3B080002F05DD78
:104F0000012F00F0BD80022F00F0C580022D6FD16F
:104F100049464FF07E50FBF777FC8146BAF1000F0F
:104F200066D039464FF07E5000F00CFA01464846F4
:104F3000FBF76AFC81465BE0002466E718EB050F8F
:104F400007D45AF82500FBF715FD46F8040B013588
:104F50006EE75846F9E70793059BDAF8001053F817
:104F60002800FBF705F901463046FBF74FFC0646E3
:104F7000079B08F10108039AAAF1040A9045EADDAB
:104F80004BF8046B09F1010904355DE7AA461E469A
:104F90004FF00008EFE74FF06E512846FBF7E8F8B6
:104FA000FBF7B2FDFBF7E6FC49460990FBF7E0F89A
:104FB00001462846FBF728FCFBF7A6FD099B0BF1F1
:104FC000FF3B46F8040B5AF82B101846FBF71EFC63
:104FD000054654E706D108F1FF330AAA52F82350D8
:104FE000ED1183E74FF07C51FBF77AFD054698BB46
:104FF00000214846FBF756FD002800F0988008F194
:10500000FF342346002201998B424CDA002A67D0F4
:105010000AAB53F82430083F002B00F08680394655
:105020004FF07E5000F08EF9A24681464FF06E5848
:1050300046AFBAF1000F80F2AF8027460022002F62
:10504000C0F2D98046A990464FF0000A234B01EBED
:10505000870BA4EB0709C2E0022549E72368BAF1F0
:10506000000F08D11BB1C3F58073236001239A465A
:10507000013204343FE7C3F1FF0323605346F6E7F0
:1050800008F1FF320AAB53F8223003F07F030AA97C
:1050900041F822303AE708F1FF320AAB53F82230E8
:1050A00003F03F03F3E70AA951F82310013B0A4339
:1050B000A9E7013453F8042D002AFAD0049B1EAA54
:1050C000434408F1010602EB830544440DF58C7955
:1050D000B44208DAA046C6E6505F0008245F000824
:1050E0000124089BE6E7079BAB4653F82600FBF735
:1050F00041FC4FF0000A4FF000082860039B9A45DE
:1051000004DD49F8268004350136E1E7059B5BF8AC
:10511000040953F82A10FBF72BF801464046FBF729
:1051200075FB0AF1010A8046E8E7013C70E7069B3F
:10513000029A4846991A00F005F94FF08741044653
:10514000FBF7CEFC00B34FF06E512046FBF710F892
:10515000FBF7DAFCFBF70EFC4FF087418146FBF7CB
:1051600007F801462046FBF74FFBFBF7CDFC0AABE7
:1051700043F828004846FBF7C7FC08F101040AABD6
:10518000083743F824004AE72046FBF7BDFC0AAB8A
:10519000444643F8280042E70AAB53F82A00FBF7DD
:1051A000E9FB4946FAF7E4FF414647F82A0048463A
:1051B000FAF7DEFF0AF1FF3A81463AE753F8040BAB
:1051C0005BF8041B03920293FAF7D2FF01464046B4
:1051D000FBF71CFBDDE9023280460AF1010A019966
:1051E0008A4501DCCA45E9DD5AAB03EB890949F878
:1051F000A08C013F23E7649B022B07DC002B4EDCD5
:105200002ED006F007005BB0BDE8F08F649B032B47
:10521000F7D10DF1C80B0BEB8407B846A246BAF1E3
:10522000000F49DCA146B9F1010F60DC0020012C20
:1052300076DC329A339B002D78D100990A600A46B9
:105240004B609060DDE757F82410FBF7DFFA013C74
:10525000002CF8DA0DB100F10040009B1860D0E797
:10526000002032AFF4E757F82810FBF7CFFA08F127
:10527000FF38B8F1000FF6DAADB100F10043009A43
:10528000014613603298FBF7BFFA4FF0010844451E
:105290000BDA0DB100F10040009B5860B1E7A04669
:1052A000002032AFE5E70346E9E757F8041FFBF7B4
:1052B000ADFA08F10108EAE7D8F8003058F8042CF4
:1052C0001946104602930192FBF7A0FA019A014693
:1052D00081461046FBF798FA029B0AF1FF3A1946FD
:1052E000FBF794FA48F80409C8F8009097E757F8D4
:1052F000043CD7F800A0184651460193FBF786FA04
:10530000019B014680461846FBF77EFA5146FBF7A3
:105310007DFA47F8040909F1FF39C7F8008082E7F0
:105320005BF82410FBF772FA013C80E7009902F168
:10533000004203F100430A604B600A4600F100405E
:105340007FE700BF30F0004238B503460D46044603
:105350002ED0B2F1FF4F04D30146FBF757FA0346B4
:1053600026E010F0FF4F18D14FF09841FAF700FFF8
:10537000174A034695420CDB0446C0F3C752193A5C
:105380004CF250318D420ADD1249184661F31E007D
:1053900000E01149FAF7ECFEE1E7D20DF0E7511910
:1053A000FE29F1DC002905DD24F0FF4444EAC15365
:1053B000184638BD11F1160F01DA0749E5E701F18A
:1053C000190024F0FF444FF04C5144EAC050E1E78B
:1053D000B03CFFFFCAF249716042A20D70B5C0F344
:1053E000C7557F3D162D0146044620F0004625DCBA
:1053F000002D0EDA1649FBF709FA0021FBF77AFBBC
:1054000028B1002C22DA134B002E18BF1C4621466F
:105410001AE0114E2E41304216D00D49FBF7F6F935
:105420000021FBF767FB0028F1D0002CBEBF4FF432
:1054300000032B41E41824EA0604E8E7B6F1FF4F25
:1054400002D3FBF7E3F90146084670BD0024DEE70E
:10545000CAF24971000080BFFFFF7F00F8B500BFAE
:10546000F8BC08BC9E467047F8B500BFF8BC08BC45
:045470009E4670479D
:1054740030202020323520203530202037352020A0
:105484003130300054656D70000000003A000000B7
:105494006F20000053656E73000000003D20000083
:1054A40020430A005F4453323738325F763031008C
:1054B4003C3D00004932634E6163203A0000000025
:1054C4004261745F542020203D20000020430000EE
:1054D4004261745F552020203D2000004261745FCA
:1054E400492020203D000000754100004261745FA6
:1054F400496176723D0000006D4100004261745FB5
:10550400496163633D200000754168004261745F36
:105514004143524C3D2000006E416800456D756C5E
:105524005F4D435576375F30303000004932634E6B
:1055340061633A004932635265733A00456E6341D0
:105544006E676C653A20000056696E20203A200090
:10555400206D5600416E616C6F674D657465720015
:1055640050657263656E743A2000000020454D500A
:10557400545920504147452000000000486172649E
:105584004661756C7400000000316253C4F5A6973F
:10559400B988DBEA7D4C1F2E4372211087B6E5D40F
:1055A400FACB98A93E0F5C6D86B7E4D542732011FF
:1055B4003F0E5D6CFBCA99A8C5F4A79601306352EF
:1055C4007C4D1E2FB889DAEB3D0C5F6EF9C89BAA9F
:1055D40084B5E6D7407122137E4F1C2DBA8BD8E9CF
:1055E400C7F6A59403326150BB8AD9E87F4E1D2CBF
:1055F40002336051C6F7A495F8C99AAB3C0D5E6FAF
:105604004170231285B4E7D67A4B1829BE8FDCED9E
:10561400C3F2A1900736655439085B6AFDCC9FAE8E
:1056240080B1E2D344752617FCCD9EAF38095A6B7E
:105634004574271681B0E3D2BF8EDDEC7B4A19286E
:1056440006376455C2F3A0914776251483B2E1D09E
:10565400FECF9CAD3A0B586904356657C0F1A2934E
:10566400BD8CDFEE79481B2AC1F0A392053467563E
:1056740078491A2BBC8DDEEF82B3E0D1467724152E
:105684003B0A5968FFCE9DAC000000000000005F9B
:1056940000000007000700147F147F14242A7F2AC7
:1056A4001223130864623649552250000503000092
:1056B400001C2241000041221C0014083E0814086A
:1056C400083E080800503000000808080808006078
:1056D4006000002010080402000000000000005FC9
:1056E40000000007000700147F147F14242A7F2A77
:1056F4001223130864623649552250000503000042
:10570400001C2241000041221C0014083E08140819
:10571400083E080800503000000808080808006027
:105724006000002010080402000000000000005F78
:1057340000000007000700147F147F14242A7F2A26
:1057440012231308646236495522500005030000F1
:10575400001C2241000041221C0014083E081408C9
:10576400083E0808005030000008080808080060D7
:1057740060000020100804023E5149453E00427F6B
:10578400400042615149462141454B311814127F72
:105794001027454545393C4A4949300171090503FB
:1057A4003649494936064949291E00363600000063
:1057B4005636000000081422411414141414004135
:1057C4002214080201510906324979413E7E111121
:1057D400117E7F494949363E414141227F41412260
:1057E4001C7F494949417F090909013E4149497AD8
:1057F4007F0808087F00417F41002040413F017F2E
:10580400081422417F404040407F020C027F7F0405
:1058140008107F3E4141413E7F090909063E41513E
:10582400215E7F09192946464949493101017F0111
:10583400013F4040403F1F2040201F3F4038403F31
:10584400631408146307087008076151494543004D
:105854007F41410002040810200041417F000402FE
:10586400010204404040404000010204002054541E
:1058740054787F48444438384444442038444448A5
:105884007F3854545418087E0901020C5252523E77
:105894007F0804047800447D40002040443D007F9C
:1058A4001028440000417F40007C041804787C08E0
:1058B40004047838444444387C1414140808141438
:1058C400187C7C080404084854545420043F444081
:1058D400203C4040207C1C2040201C3C4030403C6C
:1058E40044281028440C5050503C4464544C440008
:1058F4000836410000007F0000004136080010080F
:105904000810087846414678000000000000005F57
:1059140000000007000700147F147F14242A7F2A44
:10592400122313086462364955225000050300000F
:10593400001C2241000041221C0014083E081408E7
:10594400083E0808005030000008080808080060F5
:105954006000002010080402000000000000005F46
:1059640000000007000700147F147F14242A7F2AF4
:1059740012231308646236495522500005030000BF
:10598400001C2241000041221C0014083E08140897
:10599400083E0808005030000008080808080060A5
:1059A4006000002010080402000000000000005FF6
:1059B40000000007000700147F147F14242A7F2AA4
:1059C400122313086462364955225000050300006F
:1059D400001C2241000041221C0014083E08140847
:1059E400083E080800503000000808080808006055
:1059F40060000020100804023E5149453E00427FE9
:105A0400400042615149462141454B311814127FEF
:105A14001027454545393C4A494930017109050378
:105A24003649494936064949291E003636000000E0
:105A340056360000081422410014141414140041B2
:105A440022140802015109067E1111117E7F494971
:105A540049317F494949367F0101010370292721D2
:105A64007F7F4949494177087F0877414949493649
:105A74007F1008047F7F1009047F7F0814224120CF
:105A8400413F017F7F020C027F7F0808087F3E416F
:105A940041413E7F0101017F7F090909063E4141E1
:105AA400412201017F010147281008071E217F219F
:105AB4001E63140814633F2020205F070808087F32
:105AC4007F407F407F3F203F205F017F4848307FF9
